{
  "_format": "hh-sol-artifact-1",
  "contractName": "YourCollectible",
  "sourceName": "contracts/YourCollectible.sol",
  "abi": [
    {
      "inputs": [],
      "stateMutability": "nonpayable",
      "type": "constructor"
    },
    {
      "anonymous": false,
      "inputs": [
        {
          "indexed": true,
          "internalType": "address",
          "name": "owner",
          "type": "address"
        },
        {
          "indexed": true,
          "internalType": "address",
          "name": "approved",
          "type": "address"
        },
        {
          "indexed": true,
          "internalType": "uint256",
          "name": "tokenId",
          "type": "uint256"
        }
      ],
      "name": "Approval",
      "type": "event"
    },
    {
      "anonymous": false,
      "inputs": [
        {
          "indexed": true,
          "internalType": "address",
          "name": "owner",
          "type": "address"
        },
        {
          "indexed": true,
          "internalType": "address",
          "name": "operator",
          "type": "address"
        },
        {
          "indexed": false,
          "internalType": "bool",
          "name": "approved",
          "type": "bool"
        }
      ],
      "name": "ApprovalForAll",
      "type": "event"
    },
    {
      "anonymous": false,
      "inputs": [
        {
          "indexed": true,
          "internalType": "address",
          "name": "previousOwner",
          "type": "address"
        },
        {
          "indexed": true,
          "internalType": "address",
          "name": "newOwner",
          "type": "address"
        }
      ],
      "name": "OwnershipTransferred",
      "type": "event"
    },
    {
      "anonymous": false,
      "inputs": [
        {
          "indexed": true,
          "internalType": "address",
          "name": "from",
          "type": "address"
        },
        {
          "indexed": true,
          "internalType": "address",
          "name": "to",
          "type": "address"
        },
        {
          "indexed": true,
          "internalType": "uint256",
          "name": "tokenId",
          "type": "uint256"
        }
      ],
      "name": "Transfer",
      "type": "event"
    },
    {
      "inputs": [
        {
          "internalType": "address",
          "name": "to",
          "type": "address"
        },
        {
          "internalType": "uint256",
          "name": "tokenId",
          "type": "uint256"
        }
      ],
      "name": "approve",
      "outputs": [],
      "stateMutability": "nonpayable",
      "type": "function"
    },
    {
      "inputs": [
        {
          "internalType": "address",
          "name": "owner",
          "type": "address"
        }
      ],
      "name": "balanceOf",
      "outputs": [
        {
          "internalType": "uint256",
          "name": "",
          "type": "uint256"
        }
      ],
      "stateMutability": "view",
      "type": "function"
    },
    {
      "inputs": [
        {
          "internalType": "uint256",
          "name": "",
          "type": "uint256"
        }
      ],
      "name": "chubbiness",
      "outputs": [
        {
          "internalType": "uint256",
          "name": "",
          "type": "uint256"
        }
      ],
      "stateMutability": "view",
      "type": "function"
    },
    {
      "inputs": [
        {
          "internalType": "uint256",
          "name": "",
          "type": "uint256"
        }
      ],
      "name": "color",
      "outputs": [
        {
          "internalType": "bytes3",
          "name": "",
          "type": "bytes3"
        }
      ],
      "stateMutability": "view",
      "type": "function"
    },
    {
      "inputs": [],
      "name": "curve",
      "outputs": [
        {
          "internalType": "uint256",
          "name": "",
          "type": "uint256"
        }
      ],
      "stateMutability": "view",
      "type": "function"
    },
    {
      "inputs": [
        {
          "internalType": "uint256",
          "name": "",
          "type": "uint256"
        }
      ],
      "name": "eyeColor",
      "outputs": [
        {
          "internalType": "bytes3",
          "name": "",
          "type": "bytes3"
        }
      ],
      "stateMutability": "view",
      "type": "function"
    },
    {
      "inputs": [
        {
          "internalType": "uint256",
          "name": "tokenId",
          "type": "uint256"
        }
      ],
      "name": "getApproved",
      "outputs": [
        {
          "internalType": "address",
          "name": "",
          "type": "address"
        }
      ],
      "stateMutability": "view",
      "type": "function"
    },
    {
      "inputs": [
        {
          "internalType": "address",
          "name": "owner",
          "type": "address"
        },
        {
          "internalType": "address",
          "name": "operator",
          "type": "address"
        }
      ],
      "name": "isApprovedForAll",
      "outputs": [
        {
          "internalType": "bool",
          "name": "",
          "type": "bool"
        }
      ],
      "stateMutability": "view",
      "type": "function"
    },
    {
      "inputs": [],
      "name": "limit",
      "outputs": [
        {
          "internalType": "uint256",
          "name": "",
          "type": "uint256"
        }
      ],
      "stateMutability": "view",
      "type": "function"
    },
    {
      "inputs": [],
      "name": "mintItem",
      "outputs": [
        {
          "internalType": "uint256",
          "name": "",
          "type": "uint256"
        }
      ],
      "stateMutability": "payable",
      "type": "function"
    },
    {
      "inputs": [
        {
          "internalType": "uint256",
          "name": "",
          "type": "uint256"
        }
      ],
      "name": "mouthLength",
      "outputs": [
        {
          "internalType": "uint256",
          "name": "",
          "type": "uint256"
        }
      ],
      "stateMutability": "view",
      "type": "function"
    },
    {
      "inputs": [],
      "name": "name",
      "outputs": [
        {
          "internalType": "string",
          "name": "",
          "type": "string"
        }
      ],
      "stateMutability": "view",
      "type": "function"
    },
    {
      "inputs": [],
      "name": "owner",
      "outputs": [
        {
          "internalType": "address",
          "name": "",
          "type": "address"
        }
      ],
      "stateMutability": "view",
      "type": "function"
    },
    {
      "inputs": [
        {
          "internalType": "uint256",
          "name": "tokenId",
          "type": "uint256"
        }
      ],
      "name": "ownerOf",
      "outputs": [
        {
          "internalType": "address",
          "name": "",
          "type": "address"
        }
      ],
      "stateMutability": "view",
      "type": "function"
    },
    {
      "inputs": [],
      "name": "price",
      "outputs": [
        {
          "internalType": "uint256",
          "name": "",
          "type": "uint256"
        }
      ],
      "stateMutability": "view",
      "type": "function"
    },
    {
      "inputs": [],
      "name": "recipient",
      "outputs": [
        {
          "internalType": "address payable",
          "name": "",
          "type": "address"
        }
      ],
      "stateMutability": "view",
      "type": "function"
    },
    {
      "inputs": [
        {
          "internalType": "uint256",
          "name": "id",
          "type": "uint256"
        }
      ],
      "name": "renderTokenById",
      "outputs": [
        {
          "internalType": "string",
          "name": "",
          "type": "string"
        }
      ],
      "stateMutability": "view",
      "type": "function"
    },
    {
      "inputs": [],
      "name": "renounceOwnership",
      "outputs": [],
      "stateMutability": "nonpayable",
      "type": "function"
    },
    {
      "inputs": [
        {
          "internalType": "address",
          "name": "from",
          "type": "address"
        },
        {
          "internalType": "address",
          "name": "to",
          "type": "address"
        },
        {
          "internalType": "uint256",
          "name": "tokenId",
          "type": "uint256"
        }
      ],
      "name": "safeTransferFrom",
      "outputs": [],
      "stateMutability": "nonpayable",
      "type": "function"
    },
    {
      "inputs": [
        {
          "internalType": "address",
          "name": "from",
          "type": "address"
        },
        {
          "internalType": "address",
          "name": "to",
          "type": "address"
        },
        {
          "internalType": "uint256",
          "name": "tokenId",
          "type": "uint256"
        },
        {
          "internalType": "bytes",
          "name": "_data",
          "type": "bytes"
        }
      ],
      "name": "safeTransferFrom",
      "outputs": [],
      "stateMutability": "nonpayable",
      "type": "function"
    },
    {
      "inputs": [
        {
          "internalType": "address",
          "name": "operator",
          "type": "address"
        },
        {
          "internalType": "bool",
          "name": "approved",
          "type": "bool"
        }
      ],
      "name": "setApprovalForAll",
      "outputs": [],
      "stateMutability": "nonpayable",
      "type": "function"
    },
    {
      "inputs": [
        {
          "internalType": "bytes4",
          "name": "interfaceId",
          "type": "bytes4"
        }
      ],
      "name": "supportsInterface",
      "outputs": [
        {
          "internalType": "bool",
          "name": "",
          "type": "bool"
        }
      ],
      "stateMutability": "view",
      "type": "function"
    },
    {
      "inputs": [],
      "name": "symbol",
      "outputs": [
        {
          "internalType": "string",
          "name": "",
          "type": "string"
        }
      ],
      "stateMutability": "view",
      "type": "function"
    },
    {
      "inputs": [
        {
          "internalType": "uint256",
          "name": "index",
          "type": "uint256"
        }
      ],
      "name": "tokenByIndex",
      "outputs": [
        {
          "internalType": "uint256",
          "name": "",
          "type": "uint256"
        }
      ],
      "stateMutability": "view",
      "type": "function"
    },
    {
      "inputs": [
        {
          "internalType": "address",
          "name": "owner",
          "type": "address"
        },
        {
          "internalType": "uint256",
          "name": "index",
          "type": "uint256"
        }
      ],
      "name": "tokenOfOwnerByIndex",
      "outputs": [
        {
          "internalType": "uint256",
          "name": "",
          "type": "uint256"
        }
      ],
      "stateMutability": "view",
      "type": "function"
    },
    {
      "inputs": [
        {
          "internalType": "uint256",
          "name": "id",
          "type": "uint256"
        }
      ],
      "name": "tokenURI",
      "outputs": [
        {
          "internalType": "string",
          "name": "",
          "type": "string"
        }
      ],
      "stateMutability": "view",
      "type": "function"
    },
    {
      "inputs": [],
      "name": "totalSupply",
      "outputs": [
        {
          "internalType": "uint256",
          "name": "",
          "type": "uint256"
        }
      ],
      "stateMutability": "view",
      "type": "function"
    },
    {
      "inputs": [
        {
          "internalType": "address",
          "name": "from",
          "type": "address"
        },
        {
          "internalType": "address",
          "name": "to",
          "type": "address"
        },
        {
          "internalType": "uint256",
          "name": "tokenId",
          "type": "uint256"
        }
      ],
      "name": "transferFrom",
      "outputs": [],
      "stateMutability": "nonpayable",
      "type": "function"
    },
    {
      "inputs": [
        {
          "internalType": "address",
          "name": "newOwner",
          "type": "address"
        }
      ],
      "name": "transferOwnership",
      "outputs": [],
      "stateMutability": "nonpayable",
      "type": "function"
    }
  ],
  "bytecode": "0x608060405266038d7ea4c68000600c553480156200001c57600080fd5b506040518060400160405280601581526020017f48657465726f6368726f6d6963204c6f6f6769657300000000000000000000008152506040518060400160405280600681526020017f4f504c4f4f4700000000000000000000000000000000000000000000000000008152508160009080519060200190620000a1929190620001b1565b508060019080519060200190620000ba929190620001b1565b505050620000dd620000d1620000e360201b60201c565b620000eb60201b60201c565b620002c6565b600033905090565b6000600a60009054906101000a900473ffffffffffffffffffffffffffffffffffffffff16905081600a60006101000a81548173ffffffffffffffffffffffffffffffffffffffff021916908373ffffffffffffffffffffffffffffffffffffffff1602179055508173ffffffffffffffffffffffffffffffffffffffff168173ffffffffffffffffffffffffffffffffffffffff167f8be0079c531659141344cd1fd0a4f28419497f9722a3daafe3b4186f6b6457e060405160405180910390a35050565b828054620001bf9062000261565b90600052602060002090601f016020900481019282620001e357600085556200022f565b82601f10620001fe57805160ff19168380011785556200022f565b828001600101855582156200022f579182015b828111156200022e57825182559160200191906001019062000211565b5b5090506200023e919062000242565b5090565b5b808211156200025d57600081600090555060010162000243565b5090565b600060028204905060018216806200027a57607f821691505b6020821081141562000291576200029062000297565b5b50919050565b7f4e487b7100000000000000000000000000000000000000000000000000000000600052602260045260246000fd5b615fcf80620002d66000396000f3fe6080604052600436106101c25760003560e01c80637165485d116100f7578063a4d66daf11610095578063e985e9c511610064578063e985e9c5146106a2578063eb93406b146106df578063f2fde38b146106fd578063faa204e114610726576101c2565b8063a4d66daf146105d4578063b88d4fde146105ff578063c87b56dd14610628578063d4e28c9c14610665576101c2565b8063969e4b8d116100d1578063969e4b8d14610506578063a035b1fe14610543578063a22cb4651461056e578063a2d6c6da14610597576101c2565b80637165485d146104855780638da5cb5b146104b057806395d89b41146104db576101c2565b80633f4f8561116101645780636352211e1161013e5780636352211e146103c957806366d003ac1461040657806370a0823114610431578063715018a61461046e576101c2565b80633f4f85611461032657806342842e0e146103635780634f6ccce71461038c576101c2565b8063095ea7b3116101a0578063095ea7b31461026c57806318160ddd1461029557806323b872dd146102c05780632f745c59146102e9576101c2565b806301ffc9a7146101c757806306fdde0314610204578063081812fc1461022f575b600080fd5b3480156101d357600080fd5b506101ee60048036038101906101e99190613b62565b610763565b6040516101fb91906148f8565b60405180910390f35b34801561021057600080fd5b506102196107dd565b604051610226919061492e565b60405180910390f35b34801561023b57600080fd5b5061025660048036038101906102519190613bb4565b61086f565b6040516102639190614876565b60405180910390f35b34801561027857600080fd5b50610293600480360381019061028e9190613b26565b6108f4565b005b3480156102a157600080fd5b506102aa610a0c565b6040516102b79190614bf0565b60405180910390f35b3480156102cc57600080fd5b506102e760048036038101906102e29190613a20565b610a19565b005b3480156102f557600080fd5b50610310600480360381019061030b9190613b26565b610a79565b60405161031d9190614bf0565b60405180910390f35b34801561033257600080fd5b5061034d60048036038101906103489190613bb4565b610b1e565b60405161035a9190614bf0565b60405180910390f35b34801561036f57600080fd5b5061038a60048036038101906103859190613a20565b610b36565b005b34801561039857600080fd5b506103b360048036038101906103ae9190613bb4565b610b56565b6040516103c09190614bf0565b60405180910390f35b3480156103d557600080fd5b506103f060048036038101906103eb9190613bb4565b610bed565b6040516103fd9190614876565b60405180910390f35b34801561041257600080fd5b5061041b610c9f565b6040516104289190614891565b60405180910390f35b34801561043d57600080fd5b50610458600480360381019061045391906139bb565b610cb7565b6040516104659190614bf0565b60405180910390f35b34801561047a57600080fd5b50610483610d6f565b005b34801561049157600080fd5b5061049a610df7565b6040516104a79190614bf0565b60405180910390f35b3480156104bc57600080fd5b506104c5610dfd565b6040516104d29190614876565b60405180910390f35b3480156104e757600080fd5b506104f0610e27565b6040516104fd919061492e565b60405180910390f35b34801561051257600080fd5b5061052d60048036038101906105289190613bb4565b610eb9565b60405161053a9190614913565b60405180910390f35b34801561054f57600080fd5b50610558610ed9565b6040516105659190614bf0565b60405180910390f35b34801561057a57600080fd5b5061059560048036038101906105909190613aea565b610edf565b005b3480156105a357600080fd5b506105be60048036038101906105b99190613bb4565b611060565b6040516105cb919061492e565b60405180910390f35b3480156105e057600080fd5b506105e961119d565b6040516105f69190614bf0565b60405180910390f35b34801561060b57600080fd5b5061062660048036038101906106219190613a6f565b6111a3565b005b34801561063457600080fd5b5061064f600480360381019061064a9190613bb4565b611205565b60405161065c919061492e565b60405180910390f35b34801561067157600080fd5b5061068c60048036038101906106879190613bb4565b611479565b6040516106999190614913565b60405180910390f35b3480156106ae57600080fd5b506106c960048036038101906106c491906139e4565b611499565b6040516106d691906148f8565b60405180910390f35b6106e761152d565b6040516106f49190614bf0565b60405180910390f35b34801561070957600080fd5b50610724600480360381019061071f91906139bb565b611bcd565b005b34801561073257600080fd5b5061074d60048036038101906107489190613bb4565b611cc5565b60405161075a9190614bf0565b60405180910390f35b60007f780e9d63000000000000000000000000000000000000000000000000000000007bffffffffffffffffffffffffffffffffffffffffffffffffffffffff1916827bffffffffffffffffffffffffffffffffffffffffffffffffffffffff191614806107d657506107d582611cdd565b5b9050919050565b6060600080546107ec90614f30565b80601f016020809104026020016040519081016040528092919081815260200182805461081890614f30565b80156108655780601f1061083a57610100808354040283529160200191610865565b820191906000526020600020905b81548152906001019060200180831161084857829003601f168201915b5050505050905090565b600061087a82611dbf565b6108b9576040517f08c379a00000000000000000000000000000000000000000000000000000000081526004016108b090614b10565b60405180910390fd5b6004600083815260200190815260200160002060009054906101000a900473ffffffffffffffffffffffffffffffffffffffff169050919050565b60006108ff82610bed565b90508073ffffffffffffffffffffffffffffffffffffffff168373ffffffffffffffffffffffffffffffffffffffff161415610970576040517f08c379a000000000000000000000000000000000000000000000000000000000815260040161096790614b90565b60405180910390fd5b8073ffffffffffffffffffffffffffffffffffffffff1661098f611e2b565b73ffffffffffffffffffffffffffffffffffffffff1614806109be57506109bd816109b8611e2b565b611499565b5b6109fd576040517f08c379a00000000000000000000000000000000000000000000000000000000081526004016109f490614a90565b60405180910390fd5b610a078383611e33565b505050565b6000600880549050905090565b610a2a610a24611e2b565b82611eec565b610a69576040517f08c379a0000000000000000000000000000000000000000000000000000000008152600401610a6090614bb0565b60405180910390fd5b610a74838383611fca565b505050565b6000610a8483610cb7565b8210610ac5576040517f08c379a0000000000000000000000000000000000000000000000000000000008152600401610abc90614950565b60405180910390fd5b600660008473ffffffffffffffffffffffffffffffffffffffff1673ffffffffffffffffffffffffffffffffffffffff168152602001908152602001600020600083815260200190815260200160002054905092915050565b60106020528060005260406000206000915090505481565b610b51838383604051806020016040528060008152506111a3565b505050565b6000610b60610a0c565b8210610ba1576040517f08c379a0000000000000000000000000000000000000000000000000000000008152600401610b9890614bd0565b60405180910390fd5b60088281548110610bdb577f4e487b7100000000000000000000000000000000000000000000000000000000600052603260045260246000fd5b90600052602060002001549050919050565b6000806002600084815260200190815260200160002060009054906101000a900473ffffffffffffffffffffffffffffffffffffffff169050600073ffffffffffffffffffffffffffffffffffffffff168173ffffffffffffffffffffffffffffffffffffffff161415610c96576040517f08c379a0000000000000000000000000000000000000000000000000000000008152600401610c8d90614ad0565b60405180910390fd5b80915050919050565b73a81a6a910fed20374361b35c451a4a44f86ced4681565b60008073ffffffffffffffffffffffffffffffffffffffff168273ffffffffffffffffffffffffffffffffffffffff161415610d28576040517f08c379a0000000000000000000000000000000000000000000000000000000008152600401610d1f90614ab0565b60405180910390fd5b600360008373ffffffffffffffffffffffffffffffffffffffff1673ffffffffffffffffffffffffffffffffffffffff168152602001908152602001600020549050919050565b610d77611e2b565b73ffffffffffffffffffffffffffffffffffffffff16610d95610dfd565b73ffffffffffffffffffffffffffffffffffffffff1614610deb576040517f08c379a0000000000000000000000000000000000000000000000000000000008152600401610de290614b30565b60405180910390fd5b610df560006121c5565b565b6103ea81565b6000600a60009054906101000a900473ffffffffffffffffffffffffffffffffffffffff16905090565b606060018054610e3690614f30565b80601f0160208091040260200160405190810160405280929190818152602001828054610e6290614f30565b8015610eaf5780601f10610e8457610100808354040283529160200191610eaf565b820191906000526020600020905b815481529060010190602001808311610e9257829003601f168201915b5050505050905090565b600e6020528060005260406000206000915054906101000a900460e81b81565b600c5481565b610ee7611e2b565b73ffffffffffffffffffffffffffffffffffffffff168273ffffffffffffffffffffffffffffffffffffffff161415610f55576040517f08c379a0000000000000000000000000000000000000000000000000000000008152600401610f4c90614a30565b60405180910390fd5b8060056000610f62611e2b565b73ffffffffffffffffffffffffffffffffffffffff1673ffffffffffffffffffffffffffffffffffffffff16815260200190815260200160002060008473ffffffffffffffffffffffffffffffffffffffff1673ffffffffffffffffffffffffffffffffffffffff16815260200190815260200160002060006101000a81548160ff0219169083151502179055508173ffffffffffffffffffffffffffffffffffffffff1661100f611e2b565b73ffffffffffffffffffffffffffffffffffffffff167f17307eab39ab6107e8899845ad3d59bd9653f200f220920489ca2b5937696c318360405161105491906148f8565b60405180910390a35050565b606060006110ad600d600085815260200190815260200160002060009054906101000a900460e81b7cffffffffffffffffffffffffffffffffffffffffffffffffffffffffff191661228b565b6110c9600f60008681526020019081526020016000205461258c565b611112600e600087815260200190815260200160002060009054906101000a900460e81b7cffffffffffffffffffffffffffffffffffffffffffffffffffffffffff191661228b565b611153600b600f60008981526020019081526020016000205460096111379190614d6d565b61032a6111449190614dc7565b61114e9190614d3c565b61258c565b61116f601060008981526020019081526020016000205461258c565b604051602001611183959493929190614598565b604051602081830303815290604052905080915050919050565b610e9081565b6111b46111ae611e2b565b83611eec565b6111f3576040517f08c379a00000000000000000000000000000000000000000000000000000000081526004016111ea90614bb0565b60405180910390fd5b6111ff84848484612739565b50505050565b606061121082611dbf565b61124f576040517f08c379a000000000000000000000000000000000000000000000000000000000815260040161124690614a70565b60405180910390fd5b600061125a8361258c565b60405160200161126a91906146a9565b604051602081830303815290604052905060006112c6600d600086815260200190815260200160002060009054906101000a900460e81b7cffffffffffffffffffffffffffffffffffffffffffffffffffffffffff191661228b565b6112e2600f600087815260200190815260200160002054612795565b61132b600d600088815260200190815260200160002060009054906101000a900460e81b7cffffffffffffffffffffffffffffffffffffffffffffffffffffffffff191661228b565b60405160200161133d9392919061472f565b6040516020818303038152906040529050600061136161135c8661296a565b6129a1565b905061145083836113718861258c565b6113ba600d60008b815260200190815260200160002060009054906101000a900460e81b7cffffffffffffffffffffffffffffffffffffffffffffffffffffffffff191661228b565b6113d6600f60008c815260200190815260200160002054612795565b6113f2601060008d815260200190815260200160002054612795565b61142460146114008e610bed565b73ffffffffffffffffffffffffffffffffffffffff16612b4090919063ffffffff16565b8860405160200161143c9897969594939291906144b8565b6040516020818303038152906040526129a1565b60405160200161146091906146cb565b6040516020818303038152906040529350505050919050565b600d6020528060005260406000206000915054906101000a900460e81b81565b6000600560008473ffffffffffffffffffffffffffffffffffffffff1673ffffffffffffffffffffffffffffffffffffffff16815260200190815260200160002060008373ffffffffffffffffffffffffffffffffffffffff1673ffffffffffffffffffffffffffffffffffffffff16815260200190815260200160002060009054906101000a900460ff16905092915050565b6000610e9061153c600b612df7565b1061157c576040517f08c379a0000000000000000000000000000000000000000000000000000000008152600401611573906149f0565b60405180910390fd5b600c543410156115c1576040517f08c379a00000000000000000000000000000000000000000000000000000000081526004016115b890614b70565b60405180910390fd5b6103e86103ea600c546115d49190614d6d565b6115de9190614d3c565b600c819055506115ee600b612e05565b60006115fa600b612df7565b90506116063382612e1b565b6000816001436116169190614dc7565b40333060405160200161162c94939291906147da565b604051602081830303815290604052805190602001209050601081600260208110611680577f4e487b7100000000000000000000000000000000000000000000000000000000600052603260045260246000fd5b1a60f81b7effffffffffffffffffffffffffffffffffffffffffffffffffffffffffffff19167cffffffffffffffffffffffffffffffffffffffffffffffffffffffffff1916901c600882600160208110611704577f4e487b7100000000000000000000000000000000000000000000000000000000600052603260045260246000fd5b1a60f81b7effffffffffffffffffffffffffffffffffffffffffffffffffffffffffffff19167dffffffffffffffffffffffffffffffffffffffffffffffffffffffffffff1916901c82600060208110611787577f4e487b7100000000000000000000000000000000000000000000000000000000600052603260045260246000fd5b1a60f81b7effffffffffffffffffffffffffffffffffffffffffffffffffffffffffffff1916177dffffffffffffffffffffffffffffffffffffffffffffffffffffffffffff191617600d600084815260200190815260200160002060006101000a81548162ffffff021916908360e81c0217905550600042333085604051602001611816949392919061478c565b60405160208183030381529060405280519060200120905060108160026020811061186a577f4e487b7100000000000000000000000000000000000000000000000000000000600052603260045260246000fd5b1a60f81b7effffffffffffffffffffffffffffffffffffffffffffffffffffffffffffff19167cffffffffffffffffffffffffffffffffffffffffffffffffffffffffff1916901c6008826001602081106118ee577f4e487b7100000000000000000000000000000000000000000000000000000000600052603260045260246000fd5b1a60f81b7effffffffffffffffffffffffffffffffffffffffffffffffffffffffffffff19167dffffffffffffffffffffffffffffffffffffffffffffffffffffffffffff1916901c82600360208110611971577f4e487b7100000000000000000000000000000000000000000000000000000000600052603260045260246000fd5b1a60f81b7effffffffffffffffffffffffffffffffffffffffffffffffffffffffffffff1916177dffffffffffffffffffffffffffffffffffffffffffffffffffffffffffff191617600e600085815260200190815260200160002060006101000a81548162ffffff021916908360e81c021790555060ff82600360208110611a23577f4e487b7100000000000000000000000000000000000000000000000000000000600052603260045260246000fd5b1a60f81b60f81c60ff166037611a399190614d6d565b611a439190614d3c565b6023611a4f9190614caf565b600f60008581526020019081526020016000208190555060ff82600460208110611aa2577f4e487b7100000000000000000000000000000000000000000000000000000000600052603260045260246000fd5b1a60f81b60f81c60ff166004600f600087815260200190815260200160002054611acc9190614d3c565b611ad69190614d6d565b611ae09190614d3c565b60b4611aec9190614caf565b6010600085815260200190815260200160002081905550600073a81a6a910fed20374361b35c451a4a44f86ced4673ffffffffffffffffffffffffffffffffffffffff1634604051611b3d906146ed565b60006040518083038185875af1925050503d8060008114611b7a576040519150601f19603f3d011682016040523d82523d6000602084013e611b7f565b606091505b5050905080611bc3576040517f08c379a0000000000000000000000000000000000000000000000000000000008152600401611bba90614970565b60405180910390fd5b8394505050505090565b611bd5611e2b565b73ffffffffffffffffffffffffffffffffffffffff16611bf3610dfd565b73ffffffffffffffffffffffffffffffffffffffff1614611c49576040517f08c379a0000000000000000000000000000000000000000000000000000000008152600401611c4090614b30565b60405180910390fd5b600073ffffffffffffffffffffffffffffffffffffffff168173ffffffffffffffffffffffffffffffffffffffff161415611cb9576040517f08c379a0000000000000000000000000000000000000000000000000000000008152600401611cb0906149b0565b60405180910390fd5b611cc2816121c5565b50565b600f6020528060005260406000206000915090505481565b60007f80ac58cd000000000000000000000000000000000000000000000000000000007bffffffffffffffffffffffffffffffffffffffffffffffffffffffff1916827bffffffffffffffffffffffffffffffffffffffffffffffffffffffff19161480611da857507f5b5e139f000000000000000000000000000000000000000000000000000000007bffffffffffffffffffffffffffffffffffffffffffffffffffffffff1916827bffffffffffffffffffffffffffffffffffffffffffffffffffffffff1916145b80611db85750611db782612fe9565b5b9050919050565b60008073ffffffffffffffffffffffffffffffffffffffff166002600084815260200190815260200160002060009054906101000a900473ffffffffffffffffffffffffffffffffffffffff1673ffffffffffffffffffffffffffffffffffffffff1614159050919050565b600033905090565b816004600083815260200190815260200160002060006101000a81548173ffffffffffffffffffffffffffffffffffffffff021916908373ffffffffffffffffffffffffffffffffffffffff160217905550808273ffffffffffffffffffffffffffffffffffffffff16611ea683610bed565b73ffffffffffffffffffffffffffffffffffffffff167f8c5be1e5ebec7d5bd14f71427d1e84f3dd0314c0f7b2291e5b200ac8c7c3b92560405160405180910390a45050565b6000611ef782611dbf565b611f36576040517f08c379a0000000000000000000000000000000000000000000000000000000008152600401611f2d90614a50565b60405180910390fd5b6000611f4183610bed565b90508073ffffffffffffffffffffffffffffffffffffffff168473ffffffffffffffffffffffffffffffffffffffff161480611fb057508373ffffffffffffffffffffffffffffffffffffffff16611f988461086f565b73ffffffffffffffffffffffffffffffffffffffff16145b80611fc15750611fc08185611499565b5b91505092915050565b600081428486604051602001611fe39493929190614828565b604051602081830303815290604052805190602001209050601081600260208110612037577f4e487b7100000000000000000000000000000000000000000000000000000000600052603260045260246000fd5b1a60f81b7effffffffffffffffffffffffffffffffffffffffffffffffffffffffffffff19167cffffffffffffffffffffffffffffffffffffffffffffffffffffffffff1916901c6008826001602081106120bb577f4e487b7100000000000000000000000000000000000000000000000000000000600052603260045260246000fd5b1a60f81b7effffffffffffffffffffffffffffffffffffffffffffffffffffffffffffff19167dffffffffffffffffffffffffffffffffffffffffffffffffffffffffffff1916901c8260006020811061213e577f4e487b7100000000000000000000000000000000000000000000000000000000600052603260045260246000fd5b1a60f81b7effffffffffffffffffffffffffffffffffffffffffffffffffffffffffffff1916177dffffffffffffffffffffffffffffffffffffffffffffffffffffffffffff191617600e600084815260200190815260200160002060006101000a81548162ffffff021916908360e81c02179055506121bf848484613053565b50505050565b6000600a60009054906101000a900473ffffffffffffffffffffffffffffffffffffffff16905081600a60006101000a81548173ffffffffffffffffffffffffffffffffffffffff021916908373ffffffffffffffffffffffffffffffffffffffff1602179055508173ffffffffffffffffffffffffffffffffffffffff168173ffffffffffffffffffffffffffffffffffffffff167f8be0079c531659141344cd1fd0a4f28419497f9722a3daafe3b4186f6b6457e060405160405180910390a35050565b60606000600667ffffffffffffffff8111156122d0577f4e487b7100000000000000000000000000000000000000000000000000000000600052604160045260246000fd5b6040519080825280601f01601f1916602001820160405280156123025781602001600182028036833780820191505090505b50905060005b6003811015612582577f3031323334353637383961626364656600000000000000000000000000000000600f85836003811061236d577f4e487b7100000000000000000000000000000000000000000000000000000000600052603260045260246000fd5b1a60f81b60f81c1660ff16601081106123af577f4e487b7100000000000000000000000000000000000000000000000000000000600052603260045260246000fd5b1a60f81b8260016002846123c39190614d6d565b6123cd9190614caf565b81518110612404577f4e487b7100000000000000000000000000000000000000000000000000000000600052603260045260246000fd5b60200101907effffffffffffffffffffffffffffffffffffffffffffffffffffffffffffff1916908160001a9053507f3031323334353637383961626364656600000000000000000000000000000000600f6004868460038110612491577f4e487b7100000000000000000000000000000000000000000000000000000000600052603260045260246000fd5b1a60f81b7effffffffffffffffffffffffffffffffffffffffffffffffffffffffffffff1916901c60f81c1660ff16601081106124f7577f4e487b7100000000000000000000000000000000000000000000000000000000600052603260045260246000fd5b1a60f81b826002836125099190614d6d565b81518110612540577f4e487b7100000000000000000000000000000000000000000000000000000000600052603260045260246000fd5b60200101907effffffffffffffffffffffffffffffffffffffffffffffffffffffffffffff1916908160001a905350808061257a90614f93565b915050612308565b5080915050919050565b606060008214156125d4576040518060400160405280600181526020017f30000000000000000000000000000000000000000000000000000000000000008152509050612734565b600082905060005b600082146126065780806125ef90614f93565b915050600a826125ff9190614d3c565b91506125dc565b60008167ffffffffffffffff811115612648577f4e487b7100000000000000000000000000000000000000000000000000000000600052604160045260246000fd5b6040519080825280601f01601f19166020018201604052801561267a5781602001600182028036833780820191505090505b5090505b6000851461272d576001826126939190614dc7565b9150600a856126a29190615014565b60306126ae9190614caf565b60f81b8183815181106126ea577f4e487b7100000000000000000000000000000000000000000000000000000000600052603260045260246000fd5b60200101907effffffffffffffffffffffffffffffffffffffffffffffffffffffffffffff1916908160001a905350600a856127269190614d3c565b945061267e565b8093505050505b919050565b612744848484611fca565b612750848484846132af565b61278f576040517f08c379a000000000000000000000000000000000000000000000000000000000815260040161278690614990565b60405180910390fd5b50505050565b606060008214156127dd576040518060400160405280600181526020017f30000000000000000000000000000000000000000000000000000000000000008152509050612965565b600082905060005b6000821461280f5780806127f890614f93565b915050600a826128089190614d3c565b91506127e5565b60008167ffffffffffffffff811115612851577f4e487b7100000000000000000000000000000000000000000000000000000000600052604160045260246000fd5b6040519080825280601f01601f1916602001820160405280156128835781602001600182028036833780820191505090505b50905060008290505b6000861461295d576001816128a19190614dc7565b90506000600a80886128b39190614d3c565b6128bd9190614d6d565b876128c89190614dc7565b60306128d49190614d05565b905060008160f81b905080848481518110612918577f4e487b7100000000000000000000000000000000000000000000000000000000600052603260045260246000fd5b60200101907effffffffffffffffffffffffffffffffffffffffffffffffffffffffffffff1916908160001a905350600a886129549190614d3c565b9750505061288c565b819450505050505b919050565b6060600061297783611060565b6040516020016129879190614702565b604051602081830303815290604052905080915050919050565b60606000825114156129c457604051806020016040528060008152509050612b3b565b6000604051806060016040528060408152602001615f5a60409139905060006003600285516129f39190614caf565b6129fd9190614d3c565b6004612a099190614d6d565b90506000602082612a1a9190614caf565b67ffffffffffffffff811115612a59577f4e487b7100000000000000000000000000000000000000000000000000000000600052604160045260246000fd5b6040519080825280601f01601f191660200182016040528015612a8b5781602001600182028036833780820191505090505b509050818152600183018586518101602084015b81831015612afa576003830192508251603f8160121c168501518253600182019150603f81600c1c168501518253600182019150603f8160061c168501518253600182019150603f8116850151825360018201915050612a9f565b600389510660018114612b145760028114612b2457612b2f565b613d3d60f01b6002830352612b2f565b603d60f81b60018303525b50505050508093505050505b919050565b606060006002836002612b539190614d6d565b612b5d9190614caf565b67ffffffffffffffff811115612b9c577f4e487b7100000000000000000000000000000000000000000000000000000000600052604160045260246000fd5b6040519080825280601f01601f191660200182016040528015612bce5781602001600182028036833780820191505090505b5090507f300000000000000000000000000000000000000000000000000000000000000081600081518110612c2c577f4e487b7100000000000000000000000000000000000000000000000000000000600052603260045260246000fd5b60200101907effffffffffffffffffffffffffffffffffffffffffffffffffffffffffffff1916908160001a9053507f780000000000000000000000000000000000000000000000000000000000000081600181518110612cb6577f4e487b7100000000000000000000000000000000000000000000000000000000600052603260045260246000fd5b60200101907effffffffffffffffffffffffffffffffffffffffffffffffffffffffffffff1916908160001a90535060006001846002612cf69190614d6d565b612d009190614caf565b90505b6001811115612dec577f3031323334353637383961626364656600000000000000000000000000000000600f861660108110612d68577f4e487b7100000000000000000000000000000000000000000000000000000000600052603260045260246000fd5b1a60f81b828281518110612da5577f4e487b7100000000000000000000000000000000000000000000000000000000600052603260045260246000fd5b60200101907effffffffffffffffffffffffffffffffffffffffffffffffffffffffffffff1916908160001a905350600485901c945080612de590614f06565b9050612d03565b508091505092915050565b600081600001549050919050565b6001816000016000828254019250508190555050565b600073ffffffffffffffffffffffffffffffffffffffff168273ffffffffffffffffffffffffffffffffffffffff161415612e8b576040517f08c379a0000000000000000000000000000000000000000000000000000000008152600401612e8290614af0565b60405180910390fd5b612e9481611dbf565b15612ed4576040517f08c379a0000000000000000000000000000000000000000000000000000000008152600401612ecb906149d0565b60405180910390fd5b612ee060008383613446565b6001600360008473ffffffffffffffffffffffffffffffffffffffff1673ffffffffffffffffffffffffffffffffffffffff1681526020019081526020016000206000828254612f309190614caf565b92505081905550816002600083815260200190815260200160002060006101000a81548173ffffffffffffffffffffffffffffffffffffffff021916908373ffffffffffffffffffffffffffffffffffffffff160217905550808273ffffffffffffffffffffffffffffffffffffffff16600073ffffffffffffffffffffffffffffffffffffffff167fddf252ad1be2c89b69c2b068fc378daa952ba7f163c4a11628f55a4df523b3ef60405160405180910390a45050565b60007f01ffc9a7000000000000000000000000000000000000000000000000000000007bffffffffffffffffffffffffffffffffffffffffffffffffffffffff1916827bffffffffffffffffffffffffffffffffffffffffffffffffffffffff1916149050919050565b8273ffffffffffffffffffffffffffffffffffffffff1661307382610bed565b73ffffffffffffffffffffffffffffffffffffffff16146130c9576040517f08c379a00000000000000000000000000000000000000000000000000000000081526004016130c090614b50565b60405180910390fd5b600073ffffffffffffffffffffffffffffffffffffffff168273ffffffffffffffffffffffffffffffffffffffff161415613139576040517f08c379a000000000000000000000000000000000000000000000000000000000815260040161313090614a10565b60405180910390fd5b613144838383613446565b61314f600082611e33565b6001600360008573ffffffffffffffffffffffffffffffffffffffff1673ffffffffffffffffffffffffffffffffffffffff168152602001908152602001600020600082825461319f9190614dc7565b925050819055506001600360008473ffffffffffffffffffffffffffffffffffffffff1673ffffffffffffffffffffffffffffffffffffffff16815260200190815260200160002060008282546131f69190614caf565b92505081905550816002600083815260200190815260200160002060006101000a81548173ffffffffffffffffffffffffffffffffffffffff021916908373ffffffffffffffffffffffffffffffffffffffff160217905550808273ffffffffffffffffffffffffffffffffffffffff168473ffffffffffffffffffffffffffffffffffffffff167fddf252ad1be2c89b69c2b068fc378daa952ba7f163c4a11628f55a4df523b3ef60405160405180910390a4505050565b60006132d08473ffffffffffffffffffffffffffffffffffffffff1661355a565b15613439578373ffffffffffffffffffffffffffffffffffffffff1663150b7a026132f9611e2b565b8786866040518563ffffffff1660e01b815260040161331b94939291906148ac565b602060405180830381600087803b15801561333557600080fd5b505af192505050801561336657506040513d601f19601f820116820180604052508101906133639190613b8b565b60015b6133e9573d8060008114613396576040519150601f19603f3d011682016040523d82523d6000602084013e61339b565b606091505b506000815114156133e1576040517f08c379a00000000000000000000000000000000000000000000000000000000081526004016133d890614990565b60405180910390fd5b805181602001fd5b63150b7a0260e01b7bffffffffffffffffffffffffffffffffffffffffffffffffffffffff1916817bffffffffffffffffffffffffffffffffffffffffffffffffffffffff19161491505061343e565b600190505b949350505050565b61345183838361356d565b600073ffffffffffffffffffffffffffffffffffffffff168373ffffffffffffffffffffffffffffffffffffffff1614156134945761348f81613572565b6134d3565b8173ffffffffffffffffffffffffffffffffffffffff168373ffffffffffffffffffffffffffffffffffffffff16146134d2576134d183826135bb565b5b5b600073ffffffffffffffffffffffffffffffffffffffff168273ffffffffffffffffffffffffffffffffffffffff1614156135165761351181613728565b613555565b8273ffffffffffffffffffffffffffffffffffffffff168273ffffffffffffffffffffffffffffffffffffffff161461355457613553828261386b565b5b5b505050565b600080823b905060008111915050919050565b505050565b6008805490506009600083815260200190815260200160002081905550600881908060018154018082558091505060019003906000526020600020016000909190919091505550565b600060016135c884610cb7565b6135d29190614dc7565b90506000600760008481526020019081526020016000205490508181146136b7576000600660008673ffffffffffffffffffffffffffffffffffffffff1673ffffffffffffffffffffffffffffffffffffffff168152602001908152602001600020600084815260200190815260200160002054905080600660008773ffffffffffffffffffffffffffffffffffffffff1673ffffffffffffffffffffffffffffffffffffffff168152602001908152602001600020600084815260200190815260200160002081905550816007600083815260200190815260200160002081905550505b6007600084815260200190815260200160002060009055600660008573ffffffffffffffffffffffffffffffffffffffff1673ffffffffffffffffffffffffffffffffffffffff16815260200190815260200160002060008381526020019081526020016000206000905550505050565b6000600160088054905061373c9190614dc7565b9050600060096000848152602001908152602001600020549050600060088381548110613792577f4e487b7100000000000000000000000000000000000000000000000000000000600052603260045260246000fd5b9060005260206000200154905080600883815481106137da577f4e487b7100000000000000000000000000000000000000000000000000000000600052603260045260246000fd5b90600052602060002001819055508160096000838152602001908152602001600020819055506009600085815260200190815260200160002060009055600880548061384f577f4e487b7100000000000000000000000000000000000000000000000000000000600052603160045260246000fd5b6001900381819060005260206000200160009055905550505050565b600061387683610cb7565b905081600660008573ffffffffffffffffffffffffffffffffffffffff1673ffffffffffffffffffffffffffffffffffffffff168152602001908152602001600020600083815260200190815260200160002081905550806007600084815260200190815260200160002081905550505050565b60006138fd6138f884614c30565b614c0b565b90508281526020810184848401111561391557600080fd5b613920848285614ec4565b509392505050565b60008135905061393781615efd565b92915050565b60008135905061394c81615f14565b92915050565b60008135905061396181615f2b565b92915050565b60008151905061397681615f2b565b92915050565b600082601f83011261398d57600080fd5b813561399d8482602086016138ea565b91505092915050565b6000813590506139b581615f42565b92915050565b6000602082840312156139cd57600080fd5b60006139db84828501613928565b91505092915050565b600080604083850312156139f757600080fd5b6000613a0585828601613928565b9250506020613a1685828601613928565b9150509250929050565b600080600060608486031215613a3557600080fd5b6000613a4386828701613928565b9350506020613a5486828701613928565b9250506040613a65868287016139a6565b9150509250925092565b60008060008060808587031215613a8557600080fd5b6000613a9387828801613928565b9450506020613aa487828801613928565b9350506040613ab5878288016139a6565b925050606085013567ffffffffffffffff811115613ad257600080fd5b613ade8782880161397c565b91505092959194509250565b60008060408385031215613afd57600080fd5b6000613b0b85828601613928565b9250506020613b1c8582860161393d565b9150509250929050565b60008060408385031215613b3957600080fd5b6000613b4785828601613928565b9250506020613b58858286016139a6565b9150509250929050565b600060208284031215613b7457600080fd5b6000613b8284828501613952565b91505092915050565b600060208284031215613b9d57600080fd5b6000613bab84828501613967565b91505092915050565b600060208284031215613bc657600080fd5b6000613bd4848285016139a6565b91505092915050565b613be681614e0d565b82525050565b613bf581614dfb565b82525050565b613c0c613c0782614dfb565b614fdc565b82525050565b613c1b81614e1f565b82525050565b613c32613c2d82614e57565b614fee565b82525050565b613c4181614e2b565b82525050565b6000613c5282614c61565b613c5c8185614c77565b9350613c6c818560208601614ed3565b613c7581615101565b840191505092915050565b6000613c8b82614c6c565b613c958185614c93565b9350613ca5818560208601614ed3565b613cae81615101565b840191505092915050565b6000613cc482614c6c565b613cce8185614ca4565b9350613cde818560208601614ed3565b80840191505092915050565b6000613cf7602a83614ca4565b9150613d028261511f565b602a82019050919050565b6000613d1a600983614ca4565b9150613d258261516e565b600982019050919050565b6000613d3d602b83614c93565b9150613d4882615197565b604082019050919050565b6000613d60600e83614c93565b9150613d6b826151e6565b602082019050919050565b6000613d83603283614c93565b9150613d8e8261520f565b604082019050919050565b6000613da6600583614ca4565b9150613db18261525e565b600582019050919050565b6000613dc9602683614c93565b9150613dd482615287565b604082019050919050565b6000613dec600d83614ca4565b9150613df7826152d6565b600d82019050919050565b6000613e0f601c83614c93565b9150613e1a826152ff565b602082019050919050565b6000613e32601083614ca4565b9150613e3d82615328565b601082019050919050565b6000613e55600c83614c93565b9150613e6082615351565b602082019050919050565b6000613e78601d83614ca4565b9150613e838261537a565b601d82019050919050565b6000613e9b602483614c93565b9150613ea6826153a3565b604082019050919050565b6000613ebe601983614c93565b9150613ec9826153f2565b602082019050919050565b6000613ee1603a83614ca4565b9150613eec8261541b565b603a82019050919050565b6000613f04602c83614c93565b9150613f0f8261546a565b604082019050919050565b6000613f27600d83614ca4565b9150613f32826154b9565b600d82019050919050565b6000613f4a606183614ca4565b9150613f55826154e2565b606182019050919050565b6000613f6d600983614c93565b9150613f788261557d565b602082019050919050565b6000613f90600d83614ca4565b9150613f9b826155a6565b600d82019050919050565b6000613fb3603883614c93565b9150613fbe826155cf565b604082019050919050565b6000613fd6602a83614c93565b9150613fe18261561e565b604082019050919050565b6000613ff9602983614c93565b91506140048261566d565b604082019050919050565b600061401c600283614ca4565b9150614027826156bc565b600282019050919050565b600061403f600883614ca4565b915061404a826156e5565b600882019050919050565b6000614062602083614c93565b915061406d8261570e565b602082019050919050565b6000614085600d83614ca4565b915061409082615737565b600d82019050919050565b60006140a8606a83614ca4565b91506140b382615760565b606a82019050919050565b60006140cb602c83614c93565b91506140d6826157fb565b604082019050919050565b60006140ee602983614ca4565b91506140f98261584a565b602982019050919050565b6000614111602983614ca4565b915061411c82615899565b602982019050919050565b6000614134601283614ca4565b915061413f826158e8565b601282019050919050565b6000614157603583614ca4565b915061416282615911565b603582019050919050565b600061417a602083614c93565b915061418582615960565b602082019050919050565b600061419d606a83614ca4565b91506141a882615989565b606a82019050919050565b60006141c0602983614c93565b91506141cb82615a24565b604082019050919050565b60006141e3600483614ca4565b91506141ee82615a73565b600482019050919050565b6000614206600a83614c93565b915061421182615a9c565b602082019050919050565b6000614229600483614ca4565b915061423482615ac5565b600482019050919050565b600061424c601583614ca4565b915061425782615aee565b601582019050919050565b600061426f603c83614ca4565b915061427a82615b17565b603c82019050919050565b6000614292600383614ca4565b915061429d82615b66565b600382019050919050565b60006142b5602183614c93565b91506142c082615b8f565b604082019050919050565b60006142d8602f83614ca4565b91506142e382615bde565b602f82019050919050565b60006142fb601d83614ca4565b915061430682615c2d565b601d82019050919050565b600061431e600083614c88565b915061432982615c56565b600082019050919050565b6000614341603183614c93565b915061434c82615c59565b604082019050919050565b6000614364604183614ca4565b915061436f82615ca8565b604182019050919050565b6000614387602c83614c93565b915061439282615d1d565b604082019050919050565b60006143aa600d83614ca4565b91506143b582615d6c565b600d82019050919050565b60006143cd606b83614ca4565b91506143d882615d95565b606b82019050919050565b60006143f0601683614ca4565b91506143fb82615e30565b601682019050919050565b6000614413601a83614ca4565b915061441e82615e59565b601a82019050919050565b6000614436601f83614ca4565b915061444182615e82565b601f82019050919050565b6000614459600683614ca4565b915061446482615eab565b600682019050919050565b600061447c601a83614ca4565b915061448782615ed4565b601a82019050919050565b61449b81614ead565b82525050565b6144b26144ad82614ead565b61500a565b82525050565b60006144c382613d0d565b91506144cf828b613cb9565b91506144da82614127565b91506144e6828a613cb9565b91506144f1826142cb565b91506144fd8289613cb9565b91506145088261414a565b91506145148288613cb9565b915061451f82614104565b915061452b8287613cb9565b9150614536826140e1565b91506145428286613cb9565b915061454d8261439d565b91506145598285613cb9565b915061456482614078565b915061456f8261446f565b915061457b8284613cb9565b91506145868261400f565b91508190509998505050505050505050565b60006145a382613f83565b91506145ae82614190565b91506145b9826143c0565b91506145c48261421c565b91506145cf82613ddf565b91506145da82613e25565b91506145e68288613cb9565b91506145f182614262565b91506145fd8287613cb9565b915061460882614429565b91506146138261421c565b915061461e82613f1a565b91506146298261409b565b915061463482613f3d565b91506146408286613cb9565b915061464b82614285565b915061465682613cea565b91506146628285613cb9565b915061466d82613d99565b915061467882613e6b565b91506146848284613cb9565b915061468f82613ed4565b915061469a8261421c565b91508190509695505050505050565b60006146b482614032565b91506146c08284613cb9565b915081905092915050565b60006146d6826142ee565b91506146e28284613cb9565b915081905092915050565b60006146f882614311565b9150819050919050565b600061470d82614357565b91506147198284613cb9565b91506147248261444c565b915081905092915050565b600061473a82614406565b91506147468286613cb9565b9150614751826143e3565b915061475d8285613cb9565b91506147688261423f565b91506147748284613cb9565b915061477f826141d6565b9150819050949350505050565b600061479882876144a1565b6020820191506147a88286613bfb565b6014820191506147b88285613bfb565b6014820191506147c882846144a1565b60208201915081905095945050505050565b60006147e682876144a1565b6020820191506147f68286613c21565b6020820191506148068285613bfb565b6014820191506148168284613bfb565b60148201915081905095945050505050565b600061483482876144a1565b60208201915061484482866144a1565b6020820191506148548285613bfb565b6014820191506148648284613bfb565b60148201915081905095945050505050565b600060208201905061488b6000830184613bec565b92915050565b60006020820190506148a66000830184613bdd565b92915050565b60006080820190506148c16000830187613bec565b6148ce6020830186613bec565b6148db6040830185614492565b81810360608301526148ed8184613c47565b905095945050505050565b600060208201905061490d6000830184613c12565b92915050565b60006020820190506149286000830184613c38565b92915050565b600060208201905081810360008301526149488184613c80565b905092915050565b6000602082019050818103600083015261496981613d30565b9050919050565b6000602082019050818103600083015261498981613d53565b9050919050565b600060208201905081810360008301526149a981613d76565b9050919050565b600060208201905081810360008301526149c981613dbc565b9050919050565b600060208201905081810360008301526149e981613e02565b9050919050565b60006020820190508181036000830152614a0981613e48565b9050919050565b60006020820190508181036000830152614a2981613e8e565b9050919050565b60006020820190508181036000830152614a4981613eb1565b9050919050565b60006020820190508181036000830152614a6981613ef7565b9050919050565b60006020820190508181036000830152614a8981613f60565b9050919050565b60006020820190508181036000830152614aa981613fa6565b9050919050565b60006020820190508181036000830152614ac981613fc9565b9050919050565b60006020820190508181036000830152614ae981613fec565b9050919050565b60006020820190508181036000830152614b0981614055565b9050919050565b60006020820190508181036000830152614b29816140be565b9050919050565b60006020820190508181036000830152614b498161416d565b9050919050565b60006020820190508181036000830152614b69816141b3565b9050919050565b60006020820190508181036000830152614b89816141f9565b9050919050565b60006020820190508181036000830152614ba9816142a8565b9050919050565b60006020820190508181036000830152614bc981614334565b9050919050565b60006020820190508181036000830152614be98161437a565b9050919050565b6000602082019050614c056000830184614492565b92915050565b6000614c15614c26565b9050614c218282614f62565b919050565b6000604051905090565b600067ffffffffffffffff821115614c4b57614c4a6150d2565b5b614c5482615101565b9050602081019050919050565b600081519050919050565b600081519050919050565b600082825260208201905092915050565b600081905092915050565b600082825260208201905092915050565b600081905092915050565b6000614cba82614ead565b9150614cc583614ead565b9250827fffffffffffffffffffffffffffffffffffffffffffffffffffffffffffffffff03821115614cfa57614cf9615045565b5b828201905092915050565b6000614d1082614eb7565b9150614d1b83614eb7565b92508260ff03821115614d3157614d30615045565b5b828201905092915050565b6000614d4782614ead565b9150614d5283614ead565b925082614d6257614d61615074565b5b828204905092915050565b6000614d7882614ead565b9150614d8383614ead565b9250817fffffffffffffffffffffffffffffffffffffffffffffffffffffffffffffffff0483118215151615614dbc57614dbb615045565b5b828202905092915050565b6000614dd282614ead565b9150614ddd83614ead565b925082821015614df057614def615045565b5b828203905092915050565b6000614e0682614e8d565b9050919050565b6000614e1882614e8d565b9050919050565b60008115159050919050565b60007fffffff000000000000000000000000000000000000000000000000000000000082169050919050565b6000819050919050565b60007fffffffff0000000000000000000000000000000000000000000000000000000082169050919050565b600073ffffffffffffffffffffffffffffffffffffffff82169050919050565b6000819050919050565b600060ff82169050919050565b82818337600083830152505050565b60005b83811015614ef1578082015181840152602081019050614ed6565b83811115614f00576000848401525b50505050565b6000614f1182614ead565b91506000821415614f2557614f24615045565b5b600182039050919050565b60006002820490506001821680614f4857607f821691505b60208210811415614f5c57614f5b6150a3565b5b50919050565b614f6b82615101565b810181811067ffffffffffffffff82111715614f8a57614f896150d2565b5b80604052505050565b6000614f9e82614ead565b91507fffffffffffffffffffffffffffffffffffffffffffffffffffffffffffffffff821415614fd157614fd0615045565b5b600182019050919050565b6000614fe782614ff8565b9050919050565b6000819050919050565b600061500382615112565b9050919050565b6000819050919050565b600061501f82614ead565b915061502a83614ead565b92508261503a57615039615074565b5b828206905092915050565b7f4e487b7100000000000000000000000000000000000000000000000000000000600052601160045260246000fd5b7f4e487b7100000000000000000000000000000000000000000000000000000000600052601260045260246000fd5b7f4e487b7100000000000000000000000000000000000000000000000000000000600052602260045260246000fd5b7f4e487b7100000000000000000000000000000000000000000000000000000000600052604160045260246000fd5b6000601f19601f8301169050919050565b60008160601b9050919050565b7f3c2f673e3c6720636c6173733d226d6f75746822207472616e73666f726d3d2260008201527f7472616e736c6174652800000000000000000000000000000000000000000000602082015250565b7f7b226e616d65223a220000000000000000000000000000000000000000000000600082015250565b7f455243373231456e756d657261626c653a206f776e657220696e646578206f7560008201527f74206f6620626f756e6473000000000000000000000000000000000000000000602082015250565b7f636f756c64206e6f742073656e64000000000000000000000000000000000000600082015250565b7f4552433732313a207472616e7366657220746f206e6f6e20455243373231526560008201527f63656976657220696d706c656d656e7465720000000000000000000000000000602082015250565b7f2c3029223e000000000000000000000000000000000000000000000000000000600082015250565b7f4f776e61626c653a206e6577206f776e657220697320746865207a65726f206160008201527f6464726573730000000000000000000000000000000000000000000000000000602082015250565b7f3c672069643d2268656164223e00000000000000000000000000000000000000600082015250565b7f4552433732313a20746f6b656e20616c7265616479206d696e74656400000000600082015250565b7f3c656c6c697073652066696c6c3d222300000000000000000000000000000000600082015250565b7f444f4e45204d494e54494e470000000000000000000000000000000000000000600082015250565b7f3c7061746820643d224d20313330203234302051203132302032313020000000600082015250565b7f4552433732313a207472616e7366657220746f20746865207a65726f2061646460008201527f7265737300000000000000000000000000000000000000000000000000000000602082015250565b7f4552433732313a20617070726f766520746f2063616c6c657200000000000000600082015250565b7f2032333522207374726f6b653d22626c61636b22207374726f6b652d7769647460008201527f683d2233222066696c6c3d227472616e73706172656e74222f3e000000000000602082015250565b7f4552433732313a206f70657261746f7220717565727920666f72206e6f6e657860008201527f697374656e7420746f6b656e0000000000000000000000000000000000000000602082015250565b7f3c672069643d2265796532223e00000000000000000000000000000000000000600082015250565b7f3c656c6c697073652072793d22332e35222072783d2233222069643d2273766760008201527f5f34222063793d223136392e35222063783d2232303822207374726f6b652d7760208201527f696474683d2235222066696c6c3d222330303030303022207374726f6b653d2260408201527f2300000000000000000000000000000000000000000000000000000000000000606082015250565b7f6e6f742065786973740000000000000000000000000000000000000000000000600082015250565b7f3c672069643d2265796531223e00000000000000000000000000000000000000600082015250565b7f4552433732313a20617070726f76652063616c6c6572206973206e6f74206f7760008201527f6e6572206e6f7220617070726f76656420666f7220616c6c0000000000000000602082015250565b7f4552433732313a2062616c616e636520717565727920666f7220746865207a6560008201527f726f206164647265737300000000000000000000000000000000000000000000602082015250565b7f4552433732313a206f776e657220717565727920666f72206e6f6e657869737460008201527f656e7420746f6b656e0000000000000000000000000000000000000000000000602082015250565b7f227d000000000000000000000000000000000000000000000000000000000000600082015250565b7f4c6f6f6769652023000000000000000000000000000000000000000000000000600082015250565b7f4552433732313a206d696e7420746f20746865207a65726f2061646472657373600082015250565b7f222c2022696d616765223a202200000000000000000000000000000000000000600082015250565b7f3c656c6c69707365207374726f6b652d77696474683d2233222072793d22323960008201527f2e35222072783d2232392e35222069643d227376675f32222063793d2231363860208201527f2e35222063783d223230392e3522207374726f6b653d2223303030222066696c60408201527f6c3d2223666666222f3e00000000000000000000000000000000000000000000606082015250565b7f4552433732313a20617070726f76656420717565727920666f72206e6f6e657860008201527f697374656e7420746f6b656e0000000000000000000000000000000000000000602082015250565b7f7d2c7b2274726169745f74797065223a20226d6f7574684c656e677468222c2060008201527f2276616c7565223a200000000000000000000000000000000000000000000000602082015250565b7f227d2c7b2274726169745f74797065223a20226368756262696e657373222c2060008201527f2276616c7565223a200000000000000000000000000000000000000000000000602082015250565b7f222c20226465736372697074696f6e223a220000000000000000000000000000600082015250565b7f222c202261747472696275746573223a205b7b2274726169745f74797065223a60008201527f2022636f6c6f72222c202276616c7565223a2022230000000000000000000000602082015250565b7f4f776e61626c653a2063616c6c6572206973206e6f7420746865206f776e6572600082015250565b7f3c656c6c69707365207374726f6b652d77696474683d2233222072793d22323960008201527f2e35222072783d2232392e35222069643d227376675f31222063793d2231353460208201527f2e35222063783d223138312e3522207374726f6b653d2223303030222066696c60408201527f6c3d2223666666222f3e00000000000000000000000000000000000000000000606082015250565b7f4552433732313a207472616e73666572206f6620746f6b656e2074686174206960008201527f73206e6f74206f776e0000000000000000000000000000000000000000000000602082015250565b7f203a2d2f00000000000000000000000000000000000000000000000000000000600082015250565b7f4e4f5420454e4f55474800000000000000000000000000000000000000000000600082015250565b7f3c2f673e00000000000000000000000000000000000000000000000000000000600082015250565b7f20616e6420776974682065796520636f6c6f7220230000000000000000000000600082015250565b7f22207374726f6b652d77696474683d2233222063783d223230342e352220637960008201527f3d223231312e3830303635222069643d227376675f35222072783d2200000000602082015250565b7f222f3e0000000000000000000000000000000000000000000000000000000000600082015250565b7f4552433732313a20617070726f76616c20746f2063757272656e74206f776e6560008201527f7200000000000000000000000000000000000000000000000000000000000000602082015250565b7f222c202265787465726e616c5f75726c223a2268747470733a2f2f6275726e7960008201527f626f79732e636f6d2f746f6b656e2f0000000000000000000000000000000000602082015250565b7f646174613a6170706c69636174696f6e2f6a736f6e3b6261736536342c000000600082015250565b50565b7f4552433732313a207472616e736665722063616c6c6572206973206e6f74206f60008201527f776e6572206e6f7220617070726f766564000000000000000000000000000000602082015250565b7f3c7376672077696474683d2234303022206865696768743d223430302220786d60008201527f6c6e733d22687474703a2f2f7777772e77332e6f72672f323030302f7376672260208201527f3e00000000000000000000000000000000000000000000000000000000000000604082015250565b7f455243373231456e756d657261626c653a20676c6f62616c20696e646578206f60008201527f7574206f6620626f756e64730000000000000000000000000000000000000000602082015250565b7f7d5d2c20226f776e6572223a2200000000000000000000000000000000000000600082015250565b7f3c656c6c697073652072793d22332e35222072783d22322e35222069643d227360008201527f76675f33222063793d223135342e35222063783d223137332e3522207374726f60208201527f6b652d77696474683d223522207374726f6b653d2223303030222066696c6c3d60408201527f2223303030303030222f3e000000000000000000000000000000000000000000606082015250565b7f20776974682061206368756262696e657373206f662000000000000000000000600082015250565b7f54686973204c6f6f6769652069732074686520636f6c6f722023000000000000600082015250565b7f222072793d2235312e383030363522207374726f6b653d2223303030222f3e00600082015250565b7f3c2f7376673e0000000000000000000000000000000000000000000000000000600082015250565b7f646174613a696d6167652f7376672b786d6c3b6261736536342c000000000000600082015250565b615f0681614dfb565b8114615f1157600080fd5b50565b615f1d81614e1f565b8114615f2857600080fd5b50565b615f3481614e61565b8114615f3f57600080fd5b50565b615f4b81614ead565b8114615f5657600080fd5b5056fe4142434445464748494a4b4c4d4e4f505152535455565758595a6162636465666768696a6b6c6d6e6f707172737475767778797a303132333435363738392b2fa264697066735822122032d45f938096feaed6db7390e945da1a686190b1a37bfb2705e7cd98cafea0b564736f6c63430008040033",
  "linkReferences": {},
  "deployedLinkReferences": {}
}